{
  "abi": [
    {
      "anonymous": false,
      "inputs": [
        {
          "indexed": true,
          "internalType": "address",
          "name": "owner",
          "type": "address"
        },
        {
          "indexed": true,
          "internalType": "uint256",
          "name": "index",
          "type": "uint256"
        },
        {
          "indexed": false,
          "internalType": "string",
          "name": "uri",
          "type": "string"
        },
        {
          "indexed": false,
          "internalType": "uint256",
          "name": "unlockTime",
          "type": "uint256"
        },
        {
          "indexed": false,
          "internalType": "uint256",
          "name": "sealedAt",
          "type": "uint256"
        }
      ],
      "name": "PromiseSealed",
      "type": "event"
    },
    {
      "inputs": [
        {
          "internalType": "address",
          "name": "owner",
          "type": "address"
        },
        {
          "internalType": "uint256",
          "name": "index",
          "type": "uint256"
        }
      ],
      "name": "getPromise",
      "outputs": [
        {
          "internalType": "string",
          "name": "uri",
          "type": "string"
        },
        {
          "internalType": "uint256",
          "name": "unlockTime",
          "type": "uint256"
        },
        {
          "internalType": "uint256",
          "name": "sealedAt",
          "type": "uint256"
        }
      ],
      "stateMutability": "view",
      "type": "function"
    },
    {
      "inputs": [
        {
          "internalType": "address",
          "name": "owner",
          "type": "address"
        }
      ],
      "name": "getPromises",
      "outputs": [
        {
          "components": [
            {
              "internalType": "string",
              "name": "uri",
              "type": "string"
            },
            {
              "internalType": "uint256",
              "name": "unlockTime",
              "type": "uint256"
            },
            {
              "internalType": "uint256",
              "name": "sealedAt",
              "type": "uint256"
            }
          ],
          "internalType": "struct NorthstarPromises.Promise[]",
          "name": "",
          "type": "tuple[]"
        }
      ],
      "stateMutability": "view",
      "type": "function"
    },
    {
      "inputs": [
        {
          "internalType": "address",
          "name": "owner",
          "type": "address"
        }
      ],
      "name": "promiseCount",
      "outputs": [
        {
          "internalType": "uint256",
          "name": "",
          "type": "uint256"
        }
      ],
      "stateMutability": "view",
      "type": "function"
    },
    {
      "inputs": [
        {
          "internalType": "string",
          "name": "uri",
          "type": "string"
        },
        {
          "internalType": "uint256",
          "name": "unlockTime",
          "type": "uint256"
        }
      ],
      "name": "sealPromise",
      "outputs": [
        {
          "internalType": "uint256",
          "name": "index",
          "type": "uint256"
        }
      ],
      "stateMutability": "nonpayable",
      "type": "function"
    }
  ],
  "devdoc": {
    "kind": "dev",
    "methods": {
      "sealPromise(string,uint256)": {
        "params": {
          "unlockTime": "Unix timestamp when the promise is meant to be revisited.",
          "uri": "IPFS URI pointing to the promise content."
        },
        "returns": {
          "index": "The index of the newly sealed promise for msg.sender."
        }
      }
    },
    "title": "NorthstarPromises",
    "version": 1
  },
  "evm": {
    "assembly": "    /* \"NorthstarPromises.sol\":441:2392  contract NorthstarPromises {... */\n  mstore(0x40, 0x80)\n  callvalue\n  dup1\n  iszero\n  tag_1\n  jumpi\n  0x00\n  dup1\n  revert\ntag_1:\n  pop\n  dataSize(sub_0)\n  dup1\n  dataOffset(sub_0)\n  0x00\n  codecopy\n  0x00\n  return\nstop\n\nsub_0: assembly {\n        /* \"NorthstarPromises.sol\":441:2392  contract NorthstarPromises {... */\n      mstore(0x40, 0x80)\n      callvalue\n      dup1\n      iszero\n      tag_1\n      jumpi\n      0x00\n      dup1\n      revert\n    tag_1:\n      pop\n      jumpi(tag_2, lt(calldatasize, 0x04))\n      shr(0xe0, calldataload(0x00))\n      dup1\n      0x0293c619\n      eq\n      tag_3\n      jumpi\n      dup1\n      0x166aa050\n      eq\n      tag_4\n      jumpi\n      dup1\n      0x95e04762\n      eq\n      tag_5\n      jumpi\n      dup1\n      0xac192a27\n      eq\n      tag_6\n      jumpi\n    tag_2:\n      0x00\n      dup1\n      revert\n        /* \"NorthstarPromises.sol\":1715:1831  function promiseCount(address owner) external view returns (uint256) {... */\n    tag_3:\n      tag_7\n      tag_8\n      calldatasize\n      0x04\n      tag_9\n      jump\t// in\n    tag_8:\n      sub(shl(0xa0, 0x01), 0x01)\n        /* \"NorthstarPromises.sol\":1801:1817  _promises[owner] */\n      and\n        /* \"NorthstarPromises.sol\":1775:1782  uint256 */\n      0x00\n        /* \"NorthstarPromises.sol\":1801:1817  _promises[owner] */\n      swap1\n      dup2\n      mstore\n      0x20\n      dup2\n      swap1\n      mstore\n      0x40\n      swap1\n      keccak256\n        /* \"NorthstarPromises.sol\":1801:1824  _promises[owner].length */\n      sload\n      swap1\n        /* \"NorthstarPromises.sol\":1715:1831  function promiseCount(address owner) external view returns (uint256) {... */\n      jump\n    tag_7:\n      mload(0x40)\n        /* \"#utility.yul\":552:577   */\n      swap1\n      dup2\n      mstore\n        /* \"#utility.yul\":540:542   */\n      0x20\n        /* \"#utility.yul\":525:543   */\n      add\n        /* \"NorthstarPromises.sol\":1715:1831  function promiseCount(address owner) external view returns (uint256) {... */\n    tag_11:\n      mload(0x40)\n      dup1\n      swap2\n      sub\n      swap1\n      return\n        /* \"NorthstarPromises.sol\":1273:1652  function sealPromise(string calldata uri, uint256 unlockTime)... */\n    tag_4:\n      tag_7\n      tag_14\n      calldatasize\n      0x04\n      tag_15\n      jump\t// in\n    tag_14:\n      tag_16\n      jump\t// in\n        /* \"NorthstarPromises.sol\":1892:2160  function getPromise(address owner, uint256 index)... */\n    tag_5:\n      tag_18\n      tag_19\n      calldatasize\n      0x04\n      tag_20\n      jump\t// in\n    tag_19:\n      tag_21\n      jump\t// in\n    tag_18:\n      mload(0x40)\n      tag_11\n      swap4\n      swap3\n      swap2\n      swap1\n      tag_23\n      jump\t// in\n        /* \"NorthstarPromises.sol\":2245:2390  function getPromises(address owner)... */\n    tag_6:\n      tag_24\n      tag_25\n      calldatasize\n      0x04\n      tag_9\n      jump\t// in\n    tag_25:\n      tag_26\n      jump\t// in\n    tag_24:\n      mload(0x40)\n      tag_11\n      swap2\n      swap1\n      tag_28\n      jump\t// in\n        /* \"NorthstarPromises.sol\":1273:1652  function sealPromise(string calldata uri, uint256 unlockTime)... */\n    tag_16:\n        /* \"NorthstarPromises.sol\":1416:1426  msg.sender */\n      caller\n        /* \"NorthstarPromises.sol\":1369:1382  uint256 index */\n      0x00\n        /* \"NorthstarPromises.sol\":1406:1427  _promises[msg.sender] */\n      swap1\n      dup2\n      mstore\n      0x20\n      dup2\n      dup2\n      mstore\n      0x40\n      swap2\n      dup3\n      swap1\n      keccak256\n        /* \"NorthstarPromises.sol\":1406:1434  _promises[msg.sender].length */\n      dup1\n      sload\n        /* \"NorthstarPromises.sol\":1484:1554  Promise({uri: uri, unlockTime: unlockTime, sealedAt: block.timestamp}) */\n      dup4\n      mload\n      0x80\n      0x1f\n      dup9\n      add\n      dup6\n      swap1\n      div\n      swap1\n      swap5\n      mul\n      dup2\n      add\n      dup5\n      add\n      swap1\n      swap5\n      mstore\n      0x60\n      dup5\n      add\n      dup7\n      dup2\n      mstore\n        /* \"NorthstarPromises.sol\":1406:1434  _promises[msg.sender].length */\n      swap1\n      swap4\n        /* \"NorthstarPromises.sol\":1406:1427  _promises[msg.sender] */\n      swap2\n      swap3\n        /* \"NorthstarPromises.sol\":1484:1554  Promise({uri: uri, unlockTime: unlockTime, sealedAt: block.timestamp}) */\n      dup3\n      swap2\n      swap1\n        /* \"NorthstarPromises.sol\":1498:1501  uri */\n      dup9\n      swap1\n      dup9\n      swap1\n      dup2\n      swap1\n        /* \"NorthstarPromises.sol\":1484:1554  Promise({uri: uri, unlockTime: unlockTime, sealedAt: block.timestamp}) */\n      dup6\n      add\n        /* \"NorthstarPromises.sol\":1498:1501  uri */\n      dup4\n      dup3\n      dup1\n      dup3\n        /* \"NorthstarPromises.sol\":1484:1554  Promise({uri: uri, unlockTime: unlockTime, sealedAt: block.timestamp}) */\n      dup5\n      calldatacopy\n      0x00\n      swap3\n      add\n      dup3\n      swap1\n      mstore\n      pop\n      swap4\n      dup6\n      mstore\n      pop\n      pop\n      pop\n      0x20\n      dup1\n      dup4\n      add\n      dup8\n      swap1\n      mstore\n        /* \"NorthstarPromises.sol\":1537:1552  block.timestamp */\n      timestamp\n        /* \"NorthstarPromises.sol\":1484:1554  Promise({uri: uri, unlockTime: unlockTime, sealedAt: block.timestamp}) */\n      0x40\n      swap1\n      swap4\n      add\n      swap3\n      swap1\n      swap3\n      mstore\n        /* \"NorthstarPromises.sol\":1444:1564  _promises[msg.sender].push(... */\n      dup4\n      sload\n      0x01\n      dup2\n      add\n      dup6\n      sstore\n      swap4\n      dup2\n      mstore\n      keccak256\n      dup2\n      mload\n      swap2\n      swap3\n      0x03\n      mul\n      add\n      swap1\n      dup2\n      swap1\n      tag_32\n      swap1\n      dup3\n      tag_33\n      jump\t// in\n    tag_32:\n      pop\n      0x20\n      dup3\n      add\n      mload\n      dup2\n      0x01\n      add\n      sstore\n      0x40\n      dup3\n      add\n      mload\n      dup2\n      0x02\n      add\n      sstore\n      pop\n      pop\n        /* \"NorthstarPromises.sol\":1605:1610  index */\n      dup1\n        /* \"NorthstarPromises.sol\":1593:1603  msg.sender */\n      caller\n      sub(shl(0xa0, 0x01), 0x01)\n        /* \"NorthstarPromises.sol\":1579:1645  PromiseSealed(msg.sender, index, uri, unlockTime, block.timestamp) */\n      and\n      0x705700abde6afd29abd89101d1f332f9d487d695616ff188b8cc48a5a10f3aac\n        /* \"NorthstarPromises.sol\":1612:1615  uri */\n      dup7\n      dup7\n        /* \"NorthstarPromises.sol\":1617:1627  unlockTime */\n      dup7\n        /* \"NorthstarPromises.sol\":1629:1644  block.timestamp */\n      timestamp\n        /* \"NorthstarPromises.sol\":1579:1645  PromiseSealed(msg.sender, index, uri, unlockTime, block.timestamp) */\n      mload(0x40)\n      tag_34\n      swap5\n      swap4\n      swap3\n      swap2\n      swap1\n      tag_35\n      jump\t// in\n    tag_34:\n      mload(0x40)\n      dup1\n      swap2\n      sub\n      swap1\n      log3\n        /* \"NorthstarPromises.sol\":1273:1652  function sealPromise(string calldata uri, uint256 unlockTime)... */\n      swap4\n      swap3\n      pop\n      pop\n      pop\n      jump\t// out\n        /* \"NorthstarPromises.sol\":1892:2160  function getPromise(address owner, uint256 index)... */\n    tag_21:\n        /* \"NorthstarPromises.sol\":1989:2006  string memory uri */\n      0x60\n        /* \"NorthstarPromises.sol\":2008:2026  uint256 unlockTime */\n      0x00\n        /* \"NorthstarPromises.sol\":2028:2044  uint256 sealedAt */\n      dup1\n        /* \"NorthstarPromises.sol\":2060:2077  Promise storage p */\n      0x00\n        /* \"NorthstarPromises.sol\":2080:2089  _promises */\n      dup1\n        /* \"NorthstarPromises.sol\":2080:2096  _promises[owner] */\n      0x00\n        /* \"NorthstarPromises.sol\":2090:2095  owner */\n      dup8\n      sub(shl(0xa0, 0x01), 0x01)\n        /* \"NorthstarPromises.sol\":2080:2096  _promises[owner] */\n      and\n      sub(shl(0xa0, 0x01), 0x01)\n      and\n      dup2\n      mstore\n      0x20\n      add\n      swap1\n      dup2\n      mstore\n      0x20\n      add\n      0x00\n      keccak256\n        /* \"NorthstarPromises.sol\":2097:2102  index */\n      dup6\n        /* \"NorthstarPromises.sol\":2080:2103  _promises[owner][index] */\n      dup2\n      sload\n      dup2\n      lt\n      tag_38\n      jumpi\n      tag_38\n      tag_39\n      jump\t// in\n    tag_38:\n      swap1\n      0x00\n      mstore\n      keccak256(0x00, 0x20)\n      swap1\n      0x03\n      mul\n      add\n        /* \"NorthstarPromises.sol\":2060:2103  Promise storage p = _promises[owner][index] */\n      swap1\n      pop\n        /* \"NorthstarPromises.sol\":2121:2122  p */\n      dup1\n        /* \"NorthstarPromises.sol\":2121:2126  p.uri */\n      0x00\n      add\n        /* \"NorthstarPromises.sol\":2128:2129  p */\n      dup2\n        /* \"NorthstarPromises.sol\":2128:2140  p.unlockTime */\n      0x01\n      add\n      sload\n        /* \"NorthstarPromises.sol\":2142:2143  p */\n      dup3\n        /* \"NorthstarPromises.sol\":2142:2152  p.sealedAt */\n      0x02\n      add\n      sload\n        /* \"NorthstarPromises.sol\":2113:2153  return (p.uri, p.unlockTime, p.sealedAt) */\n      dup3\n      dup1\n      sload\n      tag_41\n      swap1\n      tag_42\n      jump\t// in\n    tag_41:\n      dup1\n      0x1f\n      add\n      0x20\n      dup1\n      swap2\n      div\n      mul\n      0x20\n      add\n      mload(0x40)\n      swap1\n      dup2\n      add\n      0x40\n      mstore\n      dup1\n      swap3\n      swap2\n      swap1\n      dup2\n      dup2\n      mstore\n      0x20\n      add\n      dup3\n      dup1\n      sload\n      tag_43\n      swap1\n      tag_42\n      jump\t// in\n    tag_43:\n      dup1\n      iszero\n      tag_44\n      jumpi\n      dup1\n      0x1f\n      lt\n      tag_45\n      jumpi\n      0x0100\n      dup1\n      dup4\n      sload\n      div\n      mul\n      dup4\n      mstore\n      swap2\n      0x20\n      add\n      swap2\n      jump(tag_44)\n    tag_45:\n      dup3\n      add\n      swap2\n      swap1\n      0x00\n      mstore\n      keccak256(0x00, 0x20)\n      swap1\n    tag_46:\n      dup2\n      sload\n      dup2\n      mstore\n      swap1\n      0x01\n      add\n      swap1\n      0x20\n      add\n      dup1\n      dup4\n      gt\n      tag_46\n      jumpi\n      dup3\n      swap1\n      sub\n      0x1f\n      and\n      dup3\n      add\n      swap2\n    tag_44:\n      pop\n      pop\n      pop\n      pop\n      pop\n      swap3\n      pop\n      swap4\n      pop\n      swap4\n      pop\n      swap4\n      pop\n      pop\n        /* \"NorthstarPromises.sol\":1892:2160  function getPromise(address owner, uint256 index)... */\n      swap3\n      pop\n      swap3\n      pop\n      swap3\n      jump\t// out\n        /* \"NorthstarPromises.sol\":2245:2390  function getPromises(address owner)... */\n    tag_26:\n      sub(shl(0xa0, 0x01), 0x01)\n        /* \"NorthstarPromises.sol\":2367:2383  _promises[owner] */\n      dup2\n      and\n        /* \"NorthstarPromises.sol\":2367:2376  _promises */\n      0x00\n        /* \"NorthstarPromises.sol\":2367:2383  _promises[owner] */\n      swap1\n      dup2\n      mstore\n      0x20\n      dup2\n      dup2\n      mstore\n      0x40\n      dup1\n      dup4\n      keccak256\n        /* \"NorthstarPromises.sol\":2360:2383  return _promises[owner] */\n      dup1\n      sload\n      dup3\n      mload\n      dup2\n      dup6\n      mul\n      dup2\n      add\n      dup6\n      add\n      swap1\n      swap4\n      mstore\n      dup1\n      dup4\n      mstore\n        /* \"NorthstarPromises.sol\":2328:2344  Promise[] memory */\n      0x60\n      swap5\n        /* \"NorthstarPromises.sol\":2360:2383  return _promises[owner] */\n      swap3\n      swap4\n        /* \"NorthstarPromises.sol\":2367:2383  _promises[owner] */\n      swap2\n      swap3\n        /* \"NorthstarPromises.sol\":2360:2383  return _promises[owner] */\n      swap1\n      swap2\n      dup5\n      add\n    tag_48:\n      dup3\n      dup3\n      lt\n      iszero\n      tag_49\n      jumpi\n      dup4\n      dup3\n      swap1\n      0x00\n      mstore\n      keccak256(0x00, 0x20)\n      swap1\n      0x03\n      mul\n      add\n      mload(0x40)\n      dup1\n      0x60\n      add\n      0x40\n      mstore\n      swap1\n      dup2\n      0x00\n      dup3\n      add\n      dup1\n      sload\n      tag_51\n      swap1\n      tag_42\n      jump\t// in\n    tag_51:\n      dup1\n      0x1f\n      add\n      0x20\n      dup1\n      swap2\n      div\n      mul\n      0x20\n      add\n      mload(0x40)\n      swap1\n      dup2\n      add\n      0x40\n      mstore\n      dup1\n      swap3\n      swap2\n      swap1\n      dup2\n      dup2\n      mstore\n      0x20\n      add\n      dup3\n      dup1\n      sload\n      tag_52\n      swap1\n      tag_42\n      jump\t// in\n    tag_52:\n      dup1\n      iszero\n      tag_53\n      jumpi\n      dup1\n      0x1f\n      lt\n      tag_54\n      jumpi\n      0x0100\n      dup1\n      dup4\n      sload\n      div\n      mul\n      dup4\n      mstore\n      swap2\n      0x20\n      add\n      swap2\n      jump(tag_53)\n    tag_54:\n      dup3\n      add\n      swap2\n      swap1\n      0x00\n      mstore\n      keccak256(0x00, 0x20)\n      swap1\n    tag_55:\n      dup2\n      sload\n      dup2\n      mstore\n      swap1\n      0x01\n      add\n      swap1\n      0x20\n      add\n      dup1\n      dup4\n      gt\n      tag_55\n      jumpi\n      dup3\n      swap1\n      sub\n      0x1f\n      and\n      dup3\n      add\n      swap2\n    tag_53:\n      pop\n      pop\n      pop\n      pop\n      pop\n      dup2\n      mstore\n      0x20\n      add\n      0x01\n      dup3\n      add\n      sload\n      dup2\n      mstore\n      0x20\n      add\n      0x02\n      dup3\n      add\n      sload\n      dup2\n      mstore\n      pop\n      pop\n      dup2\n      mstore\n      0x20\n      add\n      swap1\n      0x01\n      add\n      swap1\n      jump(tag_48)\n    tag_49:\n      pop\n      pop\n      pop\n      pop\n      swap1\n      pop\n        /* \"NorthstarPromises.sol\":2245:2390  function getPromises(address owner)... */\n      swap2\n      swap1\n      pop\n      jump\t// out\n        /* \"#utility.yul\":14:210   */\n    tag_56:\n        /* \"#utility.yul\":82:102   */\n      dup1\n      calldataload\n      sub(shl(0xa0, 0x01), 0x01)\n        /* \"#utility.yul\":131:185   */\n      dup2\n      and\n        /* \"#utility.yul\":121:186   */\n      dup2\n      eq\n        /* \"#utility.yul\":111:204   */\n      tag_64\n      jumpi\n        /* \"#utility.yul\":200:201   */\n      0x00\n        /* \"#utility.yul\":197:198   */\n      dup1\n        /* \"#utility.yul\":190:202   */\n      revert\n        /* \"#utility.yul\":111:204   */\n    tag_64:\n        /* \"#utility.yul\":14:210   */\n      swap2\n      swap1\n      pop\n      jump\t// out\n        /* \"#utility.yul\":215:401   */\n    tag_9:\n        /* \"#utility.yul\":274:280   */\n      0x00\n        /* \"#utility.yul\":327:329   */\n      0x20\n        /* \"#utility.yul\":315:324   */\n      dup3\n        /* \"#utility.yul\":306:313   */\n      dup5\n        /* \"#utility.yul\":302:325   */\n      sub\n        /* \"#utility.yul\":298:330   */\n      slt\n        /* \"#utility.yul\":295:347   */\n      iszero\n      tag_66\n      jumpi\n        /* \"#utility.yul\":343:344   */\n      0x00\n        /* \"#utility.yul\":340:341   */\n      dup1\n        /* \"#utility.yul\":333:345   */\n      revert\n        /* \"#utility.yul\":295:347   */\n    tag_66:\n        /* \"#utility.yul\":366:395   */\n      tag_67\n        /* \"#utility.yul\":385:394   */\n      dup3\n        /* \"#utility.yul\":366:395   */\n      tag_56\n      jump\t// in\n    tag_67:\n        /* \"#utility.yul\":356:395   */\n      swap4\n        /* \"#utility.yul\":215:401   */\n      swap3\n      pop\n      pop\n      pop\n      jump\t// out\n        /* \"#utility.yul\":588:1254   */\n    tag_15:\n        /* \"#utility.yul\":668:674   */\n      0x00\n        /* \"#utility.yul\":676:682   */\n      dup1\n        /* \"#utility.yul\":684:690   */\n      0x00\n        /* \"#utility.yul\":737:739   */\n      0x40\n        /* \"#utility.yul\":725:734   */\n      dup5\n        /* \"#utility.yul\":716:723   */\n      dup7\n        /* \"#utility.yul\":712:735   */\n      sub\n        /* \"#utility.yul\":708:740   */\n      slt\n        /* \"#utility.yul\":705:757   */\n      iszero\n      tag_70\n      jumpi\n        /* \"#utility.yul\":753:754   */\n      0x00\n        /* \"#utility.yul\":750:751   */\n      dup1\n        /* \"#utility.yul\":743:755   */\n      revert\n        /* \"#utility.yul\":705:757   */\n    tag_70:\n        /* \"#utility.yul\":793:802   */\n      dup4\n        /* \"#utility.yul\":780:803   */\n      calldataload\n        /* \"#utility.yul\":822:840   */\n      0xffffffffffffffff\n        /* \"#utility.yul\":863:865   */\n      dup1\n        /* \"#utility.yul\":855:861   */\n      dup3\n        /* \"#utility.yul\":852:866   */\n      gt\n        /* \"#utility.yul\":849:883   */\n      iszero\n      tag_71\n      jumpi\n        /* \"#utility.yul\":879:880   */\n      0x00\n        /* \"#utility.yul\":876:877   */\n      dup1\n        /* \"#utility.yul\":869:881   */\n      revert\n        /* \"#utility.yul\":849:883   */\n    tag_71:\n        /* \"#utility.yul\":917:923   */\n      dup2\n        /* \"#utility.yul\":906:915   */\n      dup7\n        /* \"#utility.yul\":902:924   */\n      add\n        /* \"#utility.yul\":892:924   */\n      swap2\n      pop\n        /* \"#utility.yul\":962:969   */\n      dup7\n        /* \"#utility.yul\":955:959   */\n      0x1f\n        /* \"#utility.yul\":951:953   */\n      dup4\n        /* \"#utility.yul\":947:960   */\n      add\n        /* \"#utility.yul\":943:970   */\n      slt\n        /* \"#utility.yul\":933:988   */\n      tag_72\n      jumpi\n        /* \"#utility.yul\":984:985   */\n      0x00\n        /* \"#utility.yul\":981:982   */\n      dup1\n        /* \"#utility.yul\":974:986   */\n      revert\n        /* \"#utility.yul\":933:988   */\n    tag_72:\n        /* \"#utility.yul\":1024:1026   */\n      dup2\n        /* \"#utility.yul\":1011:1027   */\n      calldataload\n        /* \"#utility.yul\":1050:1052   */\n      dup2\n        /* \"#utility.yul\":1042:1048   */\n      dup2\n        /* \"#utility.yul\":1039:1053   */\n      gt\n        /* \"#utility.yul\":1036:1070   */\n      iszero\n      tag_73\n      jumpi\n        /* \"#utility.yul\":1066:1067   */\n      0x00\n        /* \"#utility.yul\":1063:1064   */\n      dup1\n        /* \"#utility.yul\":1056:1068   */\n      revert\n        /* \"#utility.yul\":1036:1070   */\n    tag_73:\n        /* \"#utility.yul\":1113:1120   */\n      dup8\n        /* \"#utility.yul\":1106:1110   */\n      0x20\n        /* \"#utility.yul\":1097:1103   */\n      dup3\n        /* \"#utility.yul\":1093:1095   */\n      dup6\n        /* \"#utility.yul\":1089:1104   */\n      add\n        /* \"#utility.yul\":1085:1111   */\n      add\n        /* \"#utility.yul\":1082:1121   */\n      gt\n        /* \"#utility.yul\":1079:1138   */\n      iszero\n      tag_74\n      jumpi\n        /* \"#utility.yul\":1134:1135   */\n      0x00\n        /* \"#utility.yul\":1131:1132   */\n      dup1\n        /* \"#utility.yul\":1124:1136   */\n      revert\n        /* \"#utility.yul\":1079:1138   */\n    tag_74:\n        /* \"#utility.yul\":1165:1169   */\n      0x20\n        /* \"#utility.yul\":1157:1170   */\n      swap3\n      dup4\n      add\n      swap9\n        /* \"#utility.yul\":1189:1195   */\n      swap1\n      swap8\n      pop\n        /* \"#utility.yul\":1227:1247   */\n      swap6\n      swap1\n      swap2\n      add\n        /* \"#utility.yul\":1214:1248   */\n      calldataload\n      swap5\n        /* \"#utility.yul\":588:1254   */\n      swap4\n      pop\n      pop\n      pop\n      pop\n      jump\t// out\n        /* \"#utility.yul\":1259:1513   */\n    tag_20:\n        /* \"#utility.yul\":1327:1333   */\n      0x00\n        /* \"#utility.yul\":1335:1341   */\n      dup1\n        /* \"#utility.yul\":1388:1390   */\n      0x40\n        /* \"#utility.yul\":1376:1385   */\n      dup4\n        /* \"#utility.yul\":1367:1374   */\n      dup6\n        /* \"#utility.yul\":1363:1386   */\n      sub\n        /* \"#utility.yul\":1359:1391   */\n      slt\n        /* \"#utility.yul\":1356:1408   */\n      iszero\n      tag_76\n      jumpi\n        /* \"#utility.yul\":1404:1405   */\n      0x00\n        /* \"#utility.yul\":1401:1402   */\n      dup1\n        /* \"#utility.yul\":1394:1406   */\n      revert\n        /* \"#utility.yul\":1356:1408   */\n    tag_76:\n        /* \"#utility.yul\":1427:1456   */\n      tag_77\n        /* \"#utility.yul\":1446:1455   */\n      dup4\n        /* \"#utility.yul\":1427:1456   */\n      tag_56\n      jump\t// in\n    tag_77:\n        /* \"#utility.yul\":1417:1456   */\n      swap5\n        /* \"#utility.yul\":1503:1505   */\n      0x20\n        /* \"#utility.yul\":1488:1506   */\n      swap4\n      swap1\n      swap4\n      add\n        /* \"#utility.yul\":1475:1507   */\n      calldataload\n      swap4\n      pop\n      pop\n      pop\n        /* \"#utility.yul\":1259:1513   */\n      jump\t// out\n        /* \"#utility.yul\":1518:1807   */\n    tag_57:\n        /* \"#utility.yul\":1560:1563   */\n      0x00\n        /* \"#utility.yul\":1598:1603   */\n      dup2\n        /* \"#utility.yul\":1592:1604   */\n      mload\n        /* \"#utility.yul\":1625:1631   */\n      dup1\n        /* \"#utility.yul\":1620:1623   */\n      dup5\n        /* \"#utility.yul\":1613:1632   */\n      mstore\n        /* \"#utility.yul\":1681:1687   */\n      dup1\n        /* \"#utility.yul\":1674:1678   */\n      0x20\n        /* \"#utility.yul\":1667:1672   */\n      dup5\n        /* \"#utility.yul\":1663:1679   */\n      add\n        /* \"#utility.yul\":1656:1660   */\n      0x20\n        /* \"#utility.yul\":1651:1654   */\n      dup7\n        /* \"#utility.yul\":1647:1661   */\n      add\n        /* \"#utility.yul\":1641:1688   */\n      mcopy\n        /* \"#utility.yul\":1733:1734   */\n      0x00\n        /* \"#utility.yul\":1726:1730   */\n      0x20\n        /* \"#utility.yul\":1717:1723   */\n      dup3\n        /* \"#utility.yul\":1712:1715   */\n      dup7\n        /* \"#utility.yul\":1708:1724   */\n      add\n        /* \"#utility.yul\":1704:1731   */\n      add\n        /* \"#utility.yul\":1697:1735   */\n      mstore\n        /* \"#utility.yul\":1796:1800   */\n      0x20\n        /* \"#utility.yul\":1789:1791   */\n      0x1f\n        /* \"#utility.yul\":1785:1792   */\n      not\n        /* \"#utility.yul\":1780:1782   */\n      0x1f\n        /* \"#utility.yul\":1772:1778   */\n      dup4\n        /* \"#utility.yul\":1768:1783   */\n      add\n        /* \"#utility.yul\":1764:1793   */\n      and\n        /* \"#utility.yul\":1759:1762   */\n      dup6\n        /* \"#utility.yul\":1755:1794   */\n      add\n        /* \"#utility.yul\":1751:1801   */\n      add\n        /* \"#utility.yul\":1744:1801   */\n      swap2\n      pop\n      pop\n        /* \"#utility.yul\":1518:1807   */\n      swap3\n      swap2\n      pop\n      pop\n      jump\t// out\n        /* \"#utility.yul\":1812:2174   */\n    tag_23:\n        /* \"#utility.yul\":2017:2019   */\n      0x60\n        /* \"#utility.yul\":2006:2015   */\n      dup2\n        /* \"#utility.yul\":1999:2020   */\n      mstore\n        /* \"#utility.yul\":1980:1984   */\n      0x00\n        /* \"#utility.yul\":2037:2082   */\n      tag_80\n        /* \"#utility.yul\":2078:2080   */\n      0x60\n        /* \"#utility.yul\":2067:2076   */\n      dup4\n        /* \"#utility.yul\":2063:2081   */\n      add\n        /* \"#utility.yul\":2055:2061   */\n      dup7\n        /* \"#utility.yul\":2037:2082   */\n      tag_57\n      jump\t// in\n    tag_80:\n        /* \"#utility.yul\":2113:2115   */\n      0x20\n        /* \"#utility.yul\":2098:2116   */\n      dup4\n      add\n        /* \"#utility.yul\":2091:2125   */\n      swap5\n      swap1\n      swap5\n      mstore\n      pop\n        /* \"#utility.yul\":2156:2158   */\n      0x40\n        /* \"#utility.yul\":2141:2159   */\n      add\n        /* \"#utility.yul\":2134:2168   */\n      mstore\n        /* \"#utility.yul\":2029:2082   */\n      swap2\n        /* \"#utility.yul\":1812:2174   */\n      swap1\n      pop\n      jump\t// out\n        /* \"#utility.yul\":2179:3316   */\n    tag_28:\n        /* \"#utility.yul\":2365:2369   */\n      0x00\n        /* \"#utility.yul\":2394:2396   */\n      0x20\n        /* \"#utility.yul\":2434:2436   */\n      dup1\n        /* \"#utility.yul\":2423:2432   */\n      dup4\n        /* \"#utility.yul\":2419:2437   */\n      add\n        /* \"#utility.yul\":2464:2466   */\n      dup2\n        /* \"#utility.yul\":2453:2462   */\n      dup5\n        /* \"#utility.yul\":2446:2467   */\n      mstore\n        /* \"#utility.yul\":2487:2493   */\n      dup1\n        /* \"#utility.yul\":2522:2528   */\n      dup6\n        /* \"#utility.yul\":2516:2529   */\n      mload\n        /* \"#utility.yul\":2553:2559   */\n      dup1\n        /* \"#utility.yul\":2545:2551   */\n      dup4\n        /* \"#utility.yul\":2538:2560   */\n      mstore\n        /* \"#utility.yul\":2579:2581   */\n      0x40\n        /* \"#utility.yul\":2569:2581   */\n      swap3\n      pop\n        /* \"#utility.yul\":2612:2614   */\n      0x40\n        /* \"#utility.yul\":2601:2610   */\n      dup7\n        /* \"#utility.yul\":2597:2615   */\n      add\n        /* \"#utility.yul\":2590:2615   */\n      swap2\n      pop\n        /* \"#utility.yul\":2674:2676   */\n      0x40\n        /* \"#utility.yul\":2664:2670   */\n      dup2\n        /* \"#utility.yul\":2661:2662   */\n      0x05\n        /* \"#utility.yul\":2657:2671   */\n      shl\n        /* \"#utility.yul\":2646:2655   */\n      dup8\n        /* \"#utility.yul\":2642:2672   */\n      add\n        /* \"#utility.yul\":2638:2677   */\n      add\n        /* \"#utility.yul\":2712:2714   */\n      dup5\n        /* \"#utility.yul\":2704:2710   */\n      dup9\n        /* \"#utility.yul\":2700:2715   */\n      add\n        /* \"#utility.yul\":2733:2734   */\n      0x00\n        /* \"#utility.yul\":2743:3287   */\n    tag_82:\n        /* \"#utility.yul\":2757:2763   */\n      dup4\n        /* \"#utility.yul\":2754:2755   */\n      dup2\n        /* \"#utility.yul\":2751:2764   */\n      lt\n        /* \"#utility.yul\":2743:3287   */\n      iszero\n      tag_84\n      jumpi\n        /* \"#utility.yul\":2850:2852   */\n      0x3f\n        /* \"#utility.yul\":2846:2853   */\n      not\n        /* \"#utility.yul\":2834:2843   */\n      dup10\n        /* \"#utility.yul\":2826:2832   */\n      dup5\n        /* \"#utility.yul\":2822:2844   */\n      sub\n        /* \"#utility.yul\":2818:2854   */\n      add\n        /* \"#utility.yul\":2813:2816   */\n      dup6\n        /* \"#utility.yul\":2806:2855   */\n      mstore\n        /* \"#utility.yul\":2884:2890   */\n      dup2\n        /* \"#utility.yul\":2878:2891   */\n      mload\n        /* \"#utility.yul\":2914:2918   */\n      0x60\n        /* \"#utility.yul\":2957:2959   */\n      dup2\n        /* \"#utility.yul\":2951:2960   */\n      mload\n        /* \"#utility.yul\":2988:2990   */\n      dup2\n        /* \"#utility.yul\":2980:2986   */\n      dup7\n        /* \"#utility.yul\":2973:2991   */\n      mstore\n        /* \"#utility.yul\":3018:3066   */\n      tag_85\n        /* \"#utility.yul\":3062:3064   */\n      dup3\n        /* \"#utility.yul\":3054:3060   */\n      dup8\n        /* \"#utility.yul\":3050:3065   */\n      add\n        /* \"#utility.yul\":3036:3048   */\n      dup3\n        /* \"#utility.yul\":3018:3066   */\n      tag_57\n      jump\t// in\n    tag_85:\n        /* \"#utility.yul\":3109:3120   */\n      dup4\n      dup12\n      add\n        /* \"#utility.yul\":3103:3121   */\n      mload\n        /* \"#utility.yul\":3086:3101   */\n      dup8\n      dup13\n      add\n        /* \"#utility.yul\":3079:3122   */\n      mstore\n        /* \"#utility.yul\":3165:3176   */\n      swap3\n      dup10\n      add\n        /* \"#utility.yul\":3159:3177   */\n      mload\n        /* \"#utility.yul\":3142:3157   */\n      swap6\n      dup10\n      add\n        /* \"#utility.yul\":3135:3178   */\n      swap6\n      swap1\n      swap6\n      mstore\n      pop\n        /* \"#utility.yul\":3265:3277   */\n      swap5\n      dup8\n      add\n      swap5\n        /* \"#utility.yul\":3004:3066   */\n      swap3\n      pop\n        /* \"#utility.yul\":3230:3245   */\n      swap1\n      dup7\n      add\n      swap1\n        /* \"#utility.yul\":2779:2780   */\n      0x01\n        /* \"#utility.yul\":2772:2781   */\n      add\n        /* \"#utility.yul\":2743:3287   */\n      jump(tag_82)\n    tag_84:\n      pop\n        /* \"#utility.yul\":3304:3310   */\n      swap1\n      swap9\n        /* \"#utility.yul\":2179:3316   */\n      swap8\n      pop\n      pop\n      pop\n      pop\n      pop\n      pop\n      pop\n      pop\n      jump\t// out\n        /* \"#utility.yul\":3321:3448   */\n    tag_58:\n        /* \"#utility.yul\":3382:3392   */\n      0x4e487b71\n        /* \"#utility.yul\":3377:3380   */\n      0xe0\n        /* \"#utility.yul\":3373:3393   */\n      shl\n        /* \"#utility.yul\":3370:3371   */\n      0x00\n        /* \"#utility.yul\":3363:3394   */\n      mstore\n        /* \"#utility.yul\":3413:3417   */\n      0x41\n        /* \"#utility.yul\":3410:3411   */\n      0x04\n        /* \"#utility.yul\":3403:3418   */\n      mstore\n        /* \"#utility.yul\":3437:3441   */\n      0x24\n        /* \"#utility.yul\":3434:3435   */\n      0x00\n        /* \"#utility.yul\":3427:3442   */\n      revert\n        /* \"#utility.yul\":3453:3833   */\n    tag_42:\n        /* \"#utility.yul\":3532:3533   */\n      0x01\n        /* \"#utility.yul\":3528:3540   */\n      dup2\n      dup2\n      shr\n      swap1\n        /* \"#utility.yul\":3575:3587   */\n      dup3\n      and\n      dup1\n        /* \"#utility.yul\":3596:3657   */\n      tag_88\n      jumpi\n        /* \"#utility.yul\":3650:3654   */\n      0x7f\n        /* \"#utility.yul\":3642:3648   */\n      dup3\n        /* \"#utility.yul\":3638:3655   */\n      and\n        /* \"#utility.yul\":3628:3655   */\n      swap2\n      pop\n        /* \"#utility.yul\":3596:3657   */\n    tag_88:\n        /* \"#utility.yul\":3703:3705   */\n      0x20\n        /* \"#utility.yul\":3695:3701   */\n      dup3\n        /* \"#utility.yul\":3692:3706   */\n      lt\n        /* \"#utility.yul\":3672:3690   */\n      dup2\n        /* \"#utility.yul\":3669:3707   */\n      sub\n        /* \"#utility.yul\":3666:3827   */\n      tag_89\n      jumpi\n        /* \"#utility.yul\":3749:3759   */\n      0x4e487b71\n        /* \"#utility.yul\":3744:3747   */\n      0xe0\n        /* \"#utility.yul\":3740:3760   */\n      shl\n        /* \"#utility.yul\":3737:3738   */\n      0x00\n        /* \"#utility.yul\":3730:3761   */\n      mstore\n        /* \"#utility.yul\":3784:3788   */\n      0x22\n        /* \"#utility.yul\":3781:3782   */\n      0x04\n        /* \"#utility.yul\":3774:3789   */\n      mstore\n        /* \"#utility.yul\":3812:3816   */\n      0x24\n        /* \"#utility.yul\":3809:3810   */\n      0x00\n        /* \"#utility.yul\":3802:3817   */\n      revert\n        /* \"#utility.yul\":3666:3827   */\n    tag_89:\n      pop\n        /* \"#utility.yul\":3453:3833   */\n      swap2\n      swap1\n      pop\n      jump\t// out\n        /* \"#utility.yul\":3964:4482   */\n    tag_60:\n        /* \"#utility.yul\":4066:4068   */\n      0x1f\n        /* \"#utility.yul\":4061:4064   */\n      dup3\n        /* \"#utility.yul\":4058:4069   */\n      gt\n        /* \"#utility.yul\":4055:4476   */\n      iszero\n      tag_92\n      jumpi\n        /* \"#utility.yul\":4102:4107   */\n      dup1\n        /* \"#utility.yul\":4099:4100   */\n      0x00\n        /* \"#utility.yul\":4092:4108   */\n      mstore\n        /* \"#utility.yul\":4146:4150   */\n      0x20\n        /* \"#utility.yul\":4143:4144   */\n      0x00\n        /* \"#utility.yul\":4133:4151   */\n      keccak256\n        /* \"#utility.yul\":4216:4218   */\n      0x1f\n        /* \"#utility.yul\":4204:4214   */\n      dup5\n        /* \"#utility.yul\":4200:4219   */\n      add\n        /* \"#utility.yul\":4197:4198   */\n      0x05\n        /* \"#utility.yul\":4193:4220   */\n      shr\n        /* \"#utility.yul\":4187:4191   */\n      dup2\n        /* \"#utility.yul\":4183:4221   */\n      add\n        /* \"#utility.yul\":4252:4256   */\n      0x20\n        /* \"#utility.yul\":4240:4250   */\n      dup6\n        /* \"#utility.yul\":4237:4257   */\n      lt\n        /* \"#utility.yul\":4234:4281   */\n      iszero\n      tag_93\n      jumpi\n      pop\n        /* \"#utility.yul\":4275:4279   */\n      dup1\n        /* \"#utility.yul\":4234:4281   */\n    tag_93:\n        /* \"#utility.yul\":4330:4332   */\n      0x1f\n        /* \"#utility.yul\":4325:4328   */\n      dup5\n        /* \"#utility.yul\":4321:4333   */\n      add\n        /* \"#utility.yul\":4318:4319   */\n      0x05\n        /* \"#utility.yul\":4314:4334   */\n      shr\n        /* \"#utility.yul\":4308:4312   */\n      dup3\n        /* \"#utility.yul\":4304:4335   */\n      add\n        /* \"#utility.yul\":4294:4335   */\n      swap2\n      pop\n        /* \"#utility.yul\":4385:4466   */\n    tag_94:\n        /* \"#utility.yul\":4403:4405   */\n      dup2\n        /* \"#utility.yul\":4396:4401   */\n      dup2\n        /* \"#utility.yul\":4393:4406   */\n      lt\n        /* \"#utility.yul\":4385:4466   */\n      iszero\n      tag_96\n      jumpi\n        /* \"#utility.yul\":4462:4463   */\n      0x00\n        /* \"#utility.yul\":4448:4464   */\n      dup2\n      sstore\n        /* \"#utility.yul\":4429:4430   */\n      0x01\n        /* \"#utility.yul\":4418:4431   */\n      add\n        /* \"#utility.yul\":4385:4466   */\n      jump(tag_94)\n    tag_96:\n        /* \"#utility.yul\":4389:4392   */\n      pop\n      pop\n        /* \"#utility.yul\":4055:4476   */\n    tag_92:\n        /* \"#utility.yul\":3964:4482   */\n      pop\n      pop\n      pop\n      jump\t// out\n        /* \"#utility.yul\":4658:6003   */\n    tag_33:\n        /* \"#utility.yul\":4784:4787   */\n      dup2\n        /* \"#utility.yul\":4778:4788   */\n      mload\n        /* \"#utility.yul\":4811:4829   */\n      0xffffffffffffffff\n        /* \"#utility.yul\":4803:4809   */\n      dup2\n        /* \"#utility.yul\":4800:4830   */\n      gt\n        /* \"#utility.yul\":4797:4853   */\n      iszero\n      tag_100\n      jumpi\n        /* \"#utility.yul\":4833:4851   */\n      tag_100\n      tag_58\n      jump\t// in\n    tag_100:\n        /* \"#utility.yul\":4862:4959   */\n      tag_101\n        /* \"#utility.yul\":4952:4958   */\n      dup2\n        /* \"#utility.yul\":4912:4950   */\n      tag_102\n        /* \"#utility.yul\":4944:4948   */\n      dup5\n        /* \"#utility.yul\":4938:4949   */\n      sload\n        /* \"#utility.yul\":4912:4950   */\n      tag_42\n      jump\t// in\n    tag_102:\n        /* \"#utility.yul\":4906:4910   */\n      dup5\n        /* \"#utility.yul\":4862:4959   */\n      tag_60\n      jump\t// in\n    tag_101:\n        /* \"#utility.yul\":5014:5018   */\n      0x20\n      dup1\n        /* \"#utility.yul\":5071:5073   */\n      0x1f\n        /* \"#utility.yul\":5060:5074   */\n      dup4\n      gt\n        /* \"#utility.yul\":5088:5089   */\n      0x01\n        /* \"#utility.yul\":5083:5746   */\n      dup2\n      eq\n      tag_104\n      jumpi\n        /* \"#utility.yul\":5790:5791   */\n      0x00\n        /* \"#utility.yul\":5807:5813   */\n      dup5\n        /* \"#utility.yul\":5804:5893   */\n      iszero\n      tag_105\n      jumpi\n      pop\n        /* \"#utility.yul\":5859:5878   */\n      dup6\n      dup4\n      add\n        /* \"#utility.yul\":5853:5879   */\n      mload\n        /* \"#utility.yul\":5804:5893   */\n    tag_105:\n      not(0x00)\n        /* \"#utility.yul\":4615:4616   */\n      0x03\n        /* \"#utility.yul\":4611:4622   */\n      dup7\n      swap1\n      shl\n        /* \"#utility.yul\":4607:4631   */\n      shr\n        /* \"#utility.yul\":4603:4632   */\n      not\n        /* \"#utility.yul\":4593:4633   */\n      and\n        /* \"#utility.yul\":4639:4640   */\n      0x01\n        /* \"#utility.yul\":4635:4646   */\n      dup6\n      swap1\n      shl\n        /* \"#utility.yul\":4590:4647   */\n      or\n        /* \"#utility.yul\":5906:5987   */\n      dup6\n      sstore\n        /* \"#utility.yul\":5053:5997   */\n      jump(tag_103)\n        /* \"#utility.yul\":5083:5746   */\n    tag_104:\n        /* \"#utility.yul\":3911:3912   */\n      0x00\n        /* \"#utility.yul\":3904:3918   */\n      dup6\n      dup2\n      mstore\n        /* \"#utility.yul\":3948:3952   */\n      0x20\n        /* \"#utility.yul\":3935:3953   */\n      dup2\n      keccak256\n      not(0x1f)\n        /* \"#utility.yul\":5119:5139   */\n      dup7\n      and\n      swap2\n        /* \"#utility.yul\":5237:5473   */\n    tag_108:\n        /* \"#utility.yul\":5251:5258   */\n      dup3\n        /* \"#utility.yul\":5248:5249   */\n      dup2\n        /* \"#utility.yul\":5245:5259   */\n      lt\n        /* \"#utility.yul\":5237:5473   */\n      iszero\n      tag_110\n      jumpi\n        /* \"#utility.yul\":5340:5359   */\n      dup9\n      dup7\n      add\n        /* \"#utility.yul\":5334:5360   */\n      mload\n        /* \"#utility.yul\":5319:5361   */\n      dup3\n      sstore\n        /* \"#utility.yul\":5432:5459   */\n      swap5\n      dup5\n      add\n      swap5\n        /* \"#utility.yul\":5400:5401   */\n      0x01\n        /* \"#utility.yul\":5388:5402   */\n      swap1\n      swap2\n      add\n      swap1\n        /* \"#utility.yul\":5267:5286   */\n      dup5\n      add\n        /* \"#utility.yul\":5237:5473   */\n      jump(tag_108)\n    tag_110:\n        /* \"#utility.yul\":5241:5244   */\n      pop\n        /* \"#utility.yul\":5501:5507   */\n      dup6\n        /* \"#utility.yul\":5492:5499   */\n      dup3\n        /* \"#utility.yul\":5489:5508   */\n      lt\n        /* \"#utility.yul\":5486:5687   */\n      iszero\n      tag_111\n      jumpi\n        /* \"#utility.yul\":5562:5581   */\n      dup8\n      dup6\n      add\n        /* \"#utility.yul\":5556:5582   */\n      mload\n      not(0x00)\n        /* \"#utility.yul\":5645:5646   */\n      0x03\n        /* \"#utility.yul\":5641:5655   */\n      dup9\n      swap1\n      shl\n        /* \"#utility.yul\":5657:5660   */\n      0xf8\n        /* \"#utility.yul\":5637:5661   */\n      and\n        /* \"#utility.yul\":5633:5670   */\n      shr\n        /* \"#utility.yul\":5629:5671   */\n      not\n        /* \"#utility.yul\":5614:5672   */\n      and\n        /* \"#utility.yul\":5599:5673   */\n      dup2\n      sstore\n        /* \"#utility.yul\":5486:5687   */\n    tag_111:\n      pop\n      pop\n        /* \"#utility.yul\":5733:5734   */\n      0x01\n        /* \"#utility.yul\":5724:5730   */\n      dup5\n        /* \"#utility.yul\":5721:5722   */\n      0x01\n        /* \"#utility.yul\":5717:5731   */\n      shl\n        /* \"#utility.yul\":5713:5735   */\n      add\n        /* \"#utility.yul\":5707:5711   */\n      dup6\n        /* \"#utility.yul\":5700:5736   */\n      sstore\n        /* \"#utility.yul\":5053:5997   */\n    tag_103:\n      pop\n      pop\n      pop\n      pop\n        /* \"#utility.yul\":4658:6003   */\n      pop\n      pop\n      jump\t// out\n        /* \"#utility.yul\":6008:6545   */\n    tag_35:\n        /* \"#utility.yul\":6223:6225   */\n      0x60\n        /* \"#utility.yul\":6212:6221   */\n      dup2\n        /* \"#utility.yul\":6205:6226   */\n      mstore\n        /* \"#utility.yul\":6262:6268   */\n      dup4\n        /* \"#utility.yul\":6257:6259   */\n      0x60\n        /* \"#utility.yul\":6246:6255   */\n      dup3\n        /* \"#utility.yul\":6242:6260   */\n      add\n        /* \"#utility.yul\":6235:6269   */\n      mstore\n        /* \"#utility.yul\":6320:6326   */\n      dup4\n        /* \"#utility.yul\":6312:6318   */\n      dup6\n        /* \"#utility.yul\":6306:6309   */\n      0x80\n        /* \"#utility.yul\":6295:6304   */\n      dup4\n        /* \"#utility.yul\":6291:6310   */\n      add\n        /* \"#utility.yul\":6278:6327   */\n      calldatacopy\n        /* \"#utility.yul\":6377:6378   */\n      0x00\n        /* \"#utility.yul\":6371:6374   */\n      0x80\n        /* \"#utility.yul\":6362:6368   */\n      dup6\n        /* \"#utility.yul\":6351:6360   */\n      dup4\n        /* \"#utility.yul\":6347:6369   */\n      add\n        /* \"#utility.yul\":6343:6375   */\n      add\n        /* \"#utility.yul\":6336:6379   */\n      mstore\n        /* \"#utility.yul\":6186:6190   */\n      0x00\n        /* \"#utility.yul\":6447:6450   */\n      0x80\n        /* \"#utility.yul\":6440:6442   */\n      0x1f\n        /* \"#utility.yul\":6436:6443   */\n      not\n        /* \"#utility.yul\":6431:6433   */\n      0x1f\n        /* \"#utility.yul\":6423:6429   */\n      dup8\n        /* \"#utility.yul\":6419:6434   */\n      add\n        /* \"#utility.yul\":6415:6444   */\n      and\n        /* \"#utility.yul\":6404:6413   */\n      dup4\n        /* \"#utility.yul\":6400:6445   */\n      add\n        /* \"#utility.yul\":6396:6451   */\n      add\n        /* \"#utility.yul\":6388:6451   */\n      swap1\n      pop\n        /* \"#utility.yul\":6489:6495   */\n      dup4\n        /* \"#utility.yul\":6482:6486   */\n      0x20\n        /* \"#utility.yul\":6471:6480   */\n      dup4\n        /* \"#utility.yul\":6467:6487   */\n      add\n        /* \"#utility.yul\":6460:6496   */\n      mstore\n        /* \"#utility.yul\":6532:6538   */\n      dup3\n        /* \"#utility.yul\":6527:6529   */\n      0x40\n        /* \"#utility.yul\":6516:6525   */\n      dup4\n        /* \"#utility.yul\":6512:6530   */\n      add\n        /* \"#utility.yul\":6505:6539   */\n      mstore\n        /* \"#utility.yul\":6008:6545   */\n      swap6\n      swap5\n      pop\n      pop\n      pop\n      pop\n      pop\n      jump\t// out\n        /* \"#utility.yul\":6550:6677   */\n    tag_39:\n        /* \"#utility.yul\":6611:6621   */\n      0x4e487b71\n        /* \"#utility.yul\":6606:6609   */\n      0xe0\n        /* \"#utility.yul\":6602:6622   */\n      shl\n        /* \"#utility.yul\":6599:6600   */\n      0x00\n        /* \"#utility.yul\":6592:6623   */\n      mstore\n        /* \"#utility.yul\":6642:6646   */\n      0x32\n        /* \"#utility.yul\":6639:6640   */\n      0x04\n        /* \"#utility.yul\":6632:6647   */\n      mstore\n        /* \"#utility.yul\":6666:6670   */\n      0x24\n        /* \"#utility.yul\":6663:6664   */\n      0x00\n        /* \"#utility.yul\":6656:6671   */\n      revert\n\n    auxdata: 0xa2646970667358221220703e233fc52543ad8c83bb1004c9ffb9ad382d6c4a7338135662f63dda26f42664736f6c63430008190033\n}\n",
    "bytecode": {
      "linkReferences": {},
      "object": "6080604052348015600e575f80fd5b5061074c8061001c5f395ff3fe608060405234801561000f575f80fd5b506004361061004a575f3560e01c80630293c6191461004e578063166aa0501461008957806395e047621461009c578063ac192a27146100be575b5f80fd5b61007661005c3660046103e0565b6001600160a01b03165f9081526020819052604090205490565b6040519081526020015b60405180910390f35b610076610097366004610400565b6100de565b6100af6100aa366004610471565b6101c7565b604051610080939291906104c7565b6100d16100cc3660046103e0565b6102b2565b60405161008091906104eb565b335f9081526020818152604091829020805483516080601f880185900490940281018401909452606084018681529093919282919088908890819085018382808284375f92018290525093855250505060208083018790524260409093019290925283546001810185559381522081519192600302019081906101619082610604565b506020820151816001015560408201518160020155505080336001600160a01b03167f705700abde6afd29abd89101d1f332f9d487d695616ff188b8cc48a5a10f3aac868686426040516101b894939291906106c4565b60405180910390a39392505050565b60605f805f805f876001600160a01b03166001600160a01b031681526020019081526020015f2085815481106101ff576101ff610702565b905f5260205f2090600302019050805f018160010154826002015482805461022690610580565b80601f016020809104026020016040519081016040528092919081815260200182805461025290610580565b801561029d5780601f106102745761010080835404028352916020019161029d565b820191905f5260205f20905b81548152906001019060200180831161028057829003601f168201915b50505050509250935093509350509250925092565b6001600160a01b0381165f90815260208181526040808320805482518185028101850190935280835260609492939192909184015b828210156103ba578382905f5260205f2090600302016040518060600160405290815f8201805461031790610580565b80601f016020809104026020016040519081016040528092919081815260200182805461034390610580565b801561038e5780601f106103655761010080835404028352916020019161038e565b820191905f5260205f20905b81548152906001019060200180831161037157829003601f168201915b5050505050815260200160018201548152602001600282015481525050815260200190600101906102e7565b505050509050919050565b80356001600160a01b03811681146103db575f80fd5b919050565b5f602082840312156103f0575f80fd5b6103f9826103c5565b9392505050565b5f805f60408486031215610412575f80fd5b833567ffffffffffffffff80821115610429575f80fd5b818601915086601f83011261043c575f80fd5b81358181111561044a575f80fd5b87602082850101111561045b575f80fd5b6020928301989097509590910135949350505050565b5f8060408385031215610482575f80fd5b61048b836103c5565b946020939093013593505050565b5f81518084528060208401602086015e5f602082860101526020601f19601f83011685010191505092915050565b606081525f6104d96060830186610499565b60208301949094525060400152919050565b5f60208083018184528085518083526040925060408601915060408160051b8701018488015f5b8381101561055e57603f1989840301855281516060815181865261053882870182610499565b838b0151878c015292890151958901959095525094870194925090860190600101610512565b509098975050505050505050565b634e487b7160e01b5f52604160045260245ffd5b600181811c9082168061059457607f821691505b6020821081036105b257634e487b7160e01b5f52602260045260245ffd5b50919050565b601f8211156105ff57805f5260205f20601f840160051c810160208510156105dd5750805b601f840160051c820191505b818110156105fc575f81556001016105e9565b50505b505050565b815167ffffffffffffffff81111561061e5761061e61056c565b6106328161062c8454610580565b846105b8565b602080601f831160018114610665575f841561064e5750858301515b5f19600386901b1c1916600185901b1785556106bc565b5f85815260208120601f198616915b8281101561069357888601518255948401946001909101908401610674565b50858210156106b057878501515f19600388901b60f8161c191681555b505060018460011b0185555b505050505050565b60608152836060820152838560808301375f608085830101525f6080601f19601f870116830101905083602083015282604083015295945050505050565b634e487b7160e01b5f52603260045260245ffdfea2646970667358221220703e233fc52543ad8c83bb1004c9ffb9ad382d6c4a7338135662f63dda26f42664736f6c63430008190033",
      "opcodes": "PUSH1 0x80 PUSH1 0x40 MSTORE CALLVALUE DUP1 ISZERO PUSH1 0xE JUMPI PUSH0 DUP1 REVERT JUMPDEST POP PUSH2 0x74C DUP1 PUSH2 0x1C PUSH0 CODECOPY PUSH0 RETURN INVALID PUSH1 0x80 PUSH1 0x40 MSTORE CALLVALUE DUP1 ISZERO PUSH2 0xF JUMPI PUSH0 DUP1 REVERT JUMPDEST POP PUSH1 0x4 CALLDATASIZE LT PUSH2 0x4A JUMPI PUSH0 CALLDATALOAD PUSH1 0xE0 SHR DUP1 PUSH4 0x293C619 EQ PUSH2 0x4E JUMPI DUP1 PUSH4 0x166AA050 EQ PUSH2 0x89 JUMPI DUP1 PUSH4 0x95E04762 EQ PUSH2 0x9C JUMPI DUP1 PUSH4 0xAC192A27 EQ PUSH2 0xBE JUMPI JUMPDEST PUSH0 DUP1 REVERT JUMPDEST PUSH2 0x76 PUSH2 0x5C CALLDATASIZE PUSH1 0x4 PUSH2 0x3E0 JUMP JUMPDEST PUSH1 0x1 PUSH1 0x1 PUSH1 0xA0 SHL SUB AND PUSH0 SWAP1 DUP2 MSTORE PUSH1 0x20 DUP2 SWAP1 MSTORE PUSH1 0x40 SWAP1 KECCAK256 SLOAD SWAP1 JUMP JUMPDEST PUSH1 0x40 MLOAD SWAP1 DUP2 MSTORE PUSH1 0x20 ADD JUMPDEST PUSH1 0x40 MLOAD DUP1 SWAP2 SUB SWAP1 RETURN JUMPDEST PUSH2 0x76 PUSH2 0x97 CALLDATASIZE PUSH1 0x4 PUSH2 0x400 JUMP JUMPDEST PUSH2 0xDE JUMP JUMPDEST PUSH2 0xAF PUSH2 0xAA CALLDATASIZE PUSH1 0x4 PUSH2 0x471 JUMP JUMPDEST PUSH2 0x1C7 JUMP JUMPDEST PUSH1 0x40 MLOAD PUSH2 0x80 SWAP4 SWAP3 SWAP2 SWAP1 PUSH2 0x4C7 JUMP JUMPDEST PUSH2 0xD1 PUSH2 0xCC CALLDATASIZE PUSH1 0x4 PUSH2 0x3E0 JUMP JUMPDEST PUSH2 0x2B2 JUMP JUMPDEST PUSH1 0x40 MLOAD PUSH2 0x80 SWAP2 SWAP1 PUSH2 0x4EB JUMP JUMPDEST CALLER PUSH0 SWAP1 DUP2 MSTORE PUSH1 0x20 DUP2 DUP2 MSTORE PUSH1 0x40 SWAP2 DUP3 SWAP1 KECCAK256 DUP1 SLOAD DUP4 MLOAD PUSH1 0x80 PUSH1 0x1F DUP9 ADD DUP6 SWAP1 DIV SWAP1 SWAP5 MUL DUP2 ADD DUP5 ADD SWAP1 SWAP5 MSTORE PUSH1 0x60 DUP5 ADD DUP7 DUP2 MSTORE SWAP1 SWAP4 SWAP2 SWAP3 DUP3 SWAP2 SWAP1 DUP9 SWAP1 DUP9 SWAP1 DUP2 SWAP1 DUP6 ADD DUP4 DUP3 DUP1 DUP3 DUP5 CALLDATACOPY PUSH0 SWAP3 ADD DUP3 SWAP1 MSTORE POP SWAP4 DUP6 MSTORE POP POP POP PUSH1 0x20 DUP1 DUP4 ADD DUP8 SWAP1 MSTORE TIMESTAMP PUSH1 0x40 SWAP1 SWAP4 ADD SWAP3 SWAP1 SWAP3 MSTORE DUP4 SLOAD PUSH1 0x1 DUP2 ADD DUP6 SSTORE SWAP4 DUP2 MSTORE KECCAK256 DUP2 MLOAD SWAP2 SWAP3 PUSH1 0x3 MUL ADD SWAP1 DUP2 SWAP1 PUSH2 0x161 SWAP1 DUP3 PUSH2 0x604 JUMP JUMPDEST POP PUSH1 0x20 DUP3 ADD MLOAD DUP2 PUSH1 0x1 ADD SSTORE PUSH1 0x40 DUP3 ADD MLOAD DUP2 PUSH1 0x2 ADD SSTORE POP POP DUP1 CALLER PUSH1 0x1 PUSH1 0x1 PUSH1 0xA0 SHL SUB AND PUSH32 0x705700ABDE6AFD29ABD89101D1F332F9D487D695616FF188B8CC48A5A10F3AAC DUP7 DUP7 DUP7 TIMESTAMP PUSH1 0x40 MLOAD PUSH2 0x1B8 SWAP5 SWAP4 SWAP3 SWAP2 SWAP1 PUSH2 0x6C4 JUMP JUMPDEST PUSH1 0x40 MLOAD DUP1 SWAP2 SUB SWAP1 LOG3 SWAP4 SWAP3 POP POP POP JUMP JUMPDEST PUSH1 0x60 PUSH0 DUP1 PUSH0 DUP1 PUSH0 DUP8 PUSH1 0x1 PUSH1 0x1 PUSH1 0xA0 SHL SUB AND PUSH1 0x1 PUSH1 0x1 PUSH1 0xA0 SHL SUB AND DUP2 MSTORE PUSH1 0x20 ADD SWAP1 DUP2 MSTORE PUSH1 0x20 ADD PUSH0 KECCAK256 DUP6 DUP2 SLOAD DUP2 LT PUSH2 0x1FF JUMPI PUSH2 0x1FF PUSH2 0x702 JUMP JUMPDEST SWAP1 PUSH0 MSTORE PUSH1 0x20 PUSH0 KECCAK256 SWAP1 PUSH1 0x3 MUL ADD SWAP1 POP DUP1 PUSH0 ADD DUP2 PUSH1 0x1 ADD SLOAD DUP3 PUSH1 0x2 ADD SLOAD DUP3 DUP1 SLOAD PUSH2 0x226 SWAP1 PUSH2 0x580 JUMP JUMPDEST DUP1 PUSH1 0x1F ADD PUSH1 0x20 DUP1 SWAP2 DIV MUL PUSH1 0x20 ADD PUSH1 0x40 MLOAD SWAP1 DUP2 ADD PUSH1 0x40 MSTORE DUP1 SWAP3 SWAP2 SWAP1 DUP2 DUP2 MSTORE PUSH1 0x20 ADD DUP3 DUP1 SLOAD PUSH2 0x252 SWAP1 PUSH2 0x580 JUMP JUMPDEST DUP1 ISZERO PUSH2 0x29D JUMPI DUP1 PUSH1 0x1F LT PUSH2 0x274 JUMPI PUSH2 0x100 DUP1 DUP4 SLOAD DIV MUL DUP4 MSTORE SWAP2 PUSH1 0x20 ADD SWAP2 PUSH2 0x29D JUMP JUMPDEST DUP3 ADD SWAP2 SWAP1 PUSH0 MSTORE PUSH1 0x20 PUSH0 KECCAK256 SWAP1 JUMPDEST DUP2 SLOAD DUP2 MSTORE SWAP1 PUSH1 0x1 ADD SWAP1 PUSH1 0x20 ADD DUP1 DUP4 GT PUSH2 0x280 JUMPI DUP3 SWAP1 SUB PUSH1 0x1F AND DUP3 ADD SWAP2 JUMPDEST POP POP POP POP POP SWAP3 POP SWAP4 POP SWAP4 POP SWAP4 POP POP SWAP3 POP SWAP3 POP SWAP3 JUMP JUMPDEST PUSH1 0x1 PUSH1 0x1 PUSH1 0xA0 SHL SUB DUP2 AND PUSH0 SWAP1 DUP2 MSTORE PUSH1 0x20 DUP2 DUP2 MSTORE PUSH1 0x40 DUP1 DUP4 KECCAK256 DUP1 SLOAD DUP3 MLOAD DUP2 DUP6 MUL DUP2 ADD DUP6 ADD SWAP1 SWAP4 MSTORE DUP1 DUP4 MSTORE PUSH1 0x60 SWAP5 SWAP3 SWAP4 SWAP2 SWAP3 SWAP1 SWAP2 DUP5 ADD JUMPDEST DUP3 DUP3 LT ISZERO PUSH2 0x3BA JUMPI DUP4 DUP3 SWAP1 PUSH0 MSTORE PUSH1 0x20 PUSH0 KECCAK256 SWAP1 PUSH1 0x3 MUL ADD PUSH1 0x40 MLOAD DUP1 PUSH1 0x60 ADD PUSH1 0x40 MSTORE SWAP1 DUP2 PUSH0 DUP3 ADD DUP1 SLOAD PUSH2 0x317 SWAP1 PUSH2 0x580 JUMP JUMPDEST DUP1 PUSH1 0x1F ADD PUSH1 0x20 DUP1 SWAP2 DIV MUL PUSH1 0x20 ADD PUSH1 0x40 MLOAD SWAP1 DUP2 ADD PUSH1 0x40 MSTORE DUP1 SWAP3 SWAP2 SWAP1 DUP2 DUP2 MSTORE PUSH1 0x20 ADD DUP3 DUP1 SLOAD PUSH2 0x343 SWAP1 PUSH2 0x580 JUMP JUMPDEST DUP1 ISZERO PUSH2 0x38E JUMPI DUP1 PUSH1 0x1F LT PUSH2 0x365 JUMPI PUSH2 0x100 DUP1 DUP4 SLOAD DIV MUL DUP4 MSTORE SWAP2 PUSH1 0x20 ADD SWAP2 PUSH2 0x38E JUMP JUMPDEST DUP3 ADD SWAP2 SWAP1 PUSH0 MSTORE PUSH1 0x20 PUSH0 KECCAK256 SWAP1 JUMPDEST DUP2 SLOAD DUP2 MSTORE SWAP1 PUSH1 0x1 ADD SWAP1 PUSH1 0x20 ADD DUP1 DUP4 GT PUSH2 0x371 JUMPI DUP3 SWAP1 SUB PUSH1 0x1F AND DUP3 ADD SWAP2 JUMPDEST POP POP POP POP POP DUP2 MSTORE PUSH1 0x20 ADD PUSH1 0x1 DUP3 ADD SLOAD DUP2 MSTORE PUSH1 0x20 ADD PUSH1 0x2 DUP3 ADD SLOAD DUP2 MSTORE POP POP DUP2 MSTORE PUSH1 0x20 ADD SWAP1 PUSH1 0x1 ADD SWAP1 PUSH2 0x2E7 JUMP JUMPDEST POP POP POP POP SWAP1 POP SWAP2 SWAP1 POP JUMP JUMPDEST DUP1 CALLDATALOAD PUSH1 0x1 PUSH1 0x1 PUSH1 0xA0 SHL SUB DUP2 AND DUP2 EQ PUSH2 0x3DB JUMPI PUSH0 DUP1 REVERT JUMPDEST SWAP2 SWAP1 POP JUMP JUMPDEST PUSH0 PUSH1 0x20 DUP3 DUP5 SUB SLT ISZERO PUSH2 0x3F0 JUMPI PUSH0 DUP1 REVERT JUMPDEST PUSH2 0x3F9 DUP3 PUSH2 0x3C5 JUMP JUMPDEST SWAP4 SWAP3 POP POP POP JUMP JUMPDEST PUSH0 DUP1 PUSH0 PUSH1 0x40 DUP5 DUP7 SUB SLT ISZERO PUSH2 0x412 JUMPI PUSH0 DUP1 REVERT JUMPDEST DUP4 CALLDATALOAD PUSH8 0xFFFFFFFFFFFFFFFF DUP1 DUP3 GT ISZERO PUSH2 0x429 JUMPI PUSH0 DUP1 REVERT JUMPDEST DUP2 DUP7 ADD SWAP2 POP DUP7 PUSH1 0x1F DUP4 ADD SLT PUSH2 0x43C JUMPI PUSH0 DUP1 REVERT JUMPDEST DUP2 CALLDATALOAD DUP2 DUP2 GT ISZERO PUSH2 0x44A JUMPI PUSH0 DUP1 REVERT JUMPDEST DUP8 PUSH1 0x20 DUP3 DUP6 ADD ADD GT ISZERO PUSH2 0x45B JUMPI PUSH0 DUP1 REVERT JUMPDEST PUSH1 0x20 SWAP3 DUP4 ADD SWAP9 SWAP1 SWAP8 POP SWAP6 SWAP1 SWAP2 ADD CALLDATALOAD SWAP5 SWAP4 POP POP POP POP JUMP JUMPDEST PUSH0 DUP1 PUSH1 0x40 DUP4 DUP6 SUB SLT ISZERO PUSH2 0x482 JUMPI PUSH0 DUP1 REVERT JUMPDEST PUSH2 0x48B DUP4 PUSH2 0x3C5 JUMP JUMPDEST SWAP5 PUSH1 0x20 SWAP4 SWAP1 SWAP4 ADD CALLDATALOAD SWAP4 POP POP POP JUMP JUMPDEST PUSH0 DUP2 MLOAD DUP1 DUP5 MSTORE DUP1 PUSH1 0x20 DUP5 ADD PUSH1 0x20 DUP7 ADD MCOPY PUSH0 PUSH1 0x20 DUP3 DUP7 ADD ADD MSTORE PUSH1 0x20 PUSH1 0x1F NOT PUSH1 0x1F DUP4 ADD AND DUP6 ADD ADD SWAP2 POP POP SWAP3 SWAP2 POP POP JUMP JUMPDEST PUSH1 0x60 DUP2 MSTORE PUSH0 PUSH2 0x4D9 PUSH1 0x60 DUP4 ADD DUP7 PUSH2 0x499 JUMP JUMPDEST PUSH1 0x20 DUP4 ADD SWAP5 SWAP1 SWAP5 MSTORE POP PUSH1 0x40 ADD MSTORE SWAP2 SWAP1 POP JUMP JUMPDEST PUSH0 PUSH1 0x20 DUP1 DUP4 ADD DUP2 DUP5 MSTORE DUP1 DUP6 MLOAD DUP1 DUP4 MSTORE PUSH1 0x40 SWAP3 POP PUSH1 0x40 DUP7 ADD SWAP2 POP PUSH1 0x40 DUP2 PUSH1 0x5 SHL DUP8 ADD ADD DUP5 DUP9 ADD PUSH0 JUMPDEST DUP4 DUP2 LT ISZERO PUSH2 0x55E JUMPI PUSH1 0x3F NOT DUP10 DUP5 SUB ADD DUP6 MSTORE DUP2 MLOAD PUSH1 0x60 DUP2 MLOAD DUP2 DUP7 MSTORE PUSH2 0x538 DUP3 DUP8 ADD DUP3 PUSH2 0x499 JUMP JUMPDEST DUP4 DUP12 ADD MLOAD DUP8 DUP13 ADD MSTORE SWAP3 DUP10 ADD MLOAD SWAP6 DUP10 ADD SWAP6 SWAP1 SWAP6 MSTORE POP SWAP5 DUP8 ADD SWAP5 SWAP3 POP SWAP1 DUP7 ADD SWAP1 PUSH1 0x1 ADD PUSH2 0x512 JUMP JUMPDEST POP SWAP1 SWAP9 SWAP8 POP POP POP POP POP POP POP POP JUMP JUMPDEST PUSH4 0x4E487B71 PUSH1 0xE0 SHL PUSH0 MSTORE PUSH1 0x41 PUSH1 0x4 MSTORE PUSH1 0x24 PUSH0 REVERT JUMPDEST PUSH1 0x1 DUP2 DUP2 SHR SWAP1 DUP3 AND DUP1 PUSH2 0x594 JUMPI PUSH1 0x7F DUP3 AND SWAP2 POP JUMPDEST PUSH1 0x20 DUP3 LT DUP2 SUB PUSH2 0x5B2 JUMPI PUSH4 0x4E487B71 PUSH1 0xE0 SHL PUSH0 MSTORE PUSH1 0x22 PUSH1 0x4 MSTORE PUSH1 0x24 PUSH0 REVERT JUMPDEST POP SWAP2 SWAP1 POP JUMP JUMPDEST PUSH1 0x1F DUP3 GT ISZERO PUSH2 0x5FF JUMPI DUP1 PUSH0 MSTORE PUSH1 0x20 PUSH0 KECCAK256 PUSH1 0x1F DUP5 ADD PUSH1 0x5 SHR DUP2 ADD PUSH1 0x20 DUP6 LT ISZERO PUSH2 0x5DD JUMPI POP DUP1 JUMPDEST PUSH1 0x1F DUP5 ADD PUSH1 0x5 SHR DUP3 ADD SWAP2 POP JUMPDEST DUP2 DUP2 LT ISZERO PUSH2 0x5FC JUMPI PUSH0 DUP2 SSTORE PUSH1 0x1 ADD PUSH2 0x5E9 JUMP JUMPDEST POP POP JUMPDEST POP POP POP JUMP JUMPDEST DUP2 MLOAD PUSH8 0xFFFFFFFFFFFFFFFF DUP2 GT ISZERO PUSH2 0x61E JUMPI PUSH2 0x61E PUSH2 0x56C JUMP JUMPDEST PUSH2 0x632 DUP2 PUSH2 0x62C DUP5 SLOAD PUSH2 0x580 JUMP JUMPDEST DUP5 PUSH2 0x5B8 JUMP JUMPDEST PUSH1 0x20 DUP1 PUSH1 0x1F DUP4 GT PUSH1 0x1 DUP2 EQ PUSH2 0x665 JUMPI PUSH0 DUP5 ISZERO PUSH2 0x64E JUMPI POP DUP6 DUP4 ADD MLOAD JUMPDEST PUSH0 NOT PUSH1 0x3 DUP7 SWAP1 SHL SHR NOT AND PUSH1 0x1 DUP6 SWAP1 SHL OR DUP6 SSTORE PUSH2 0x6BC JUMP JUMPDEST PUSH0 DUP6 DUP2 MSTORE PUSH1 0x20 DUP2 KECCAK256 PUSH1 0x1F NOT DUP7 AND SWAP2 JUMPDEST DUP3 DUP2 LT ISZERO PUSH2 0x693 JUMPI DUP9 DUP7 ADD MLOAD DUP3 SSTORE SWAP5 DUP5 ADD SWAP5 PUSH1 0x1 SWAP1 SWAP2 ADD SWAP1 DUP5 ADD PUSH2 0x674 JUMP JUMPDEST POP DUP6 DUP3 LT ISZERO PUSH2 0x6B0 JUMPI DUP8 DUP6 ADD MLOAD PUSH0 NOT PUSH1 0x3 DUP9 SWAP1 SHL PUSH1 0xF8 AND SHR NOT AND DUP2 SSTORE JUMPDEST POP POP PUSH1 0x1 DUP5 PUSH1 0x1 SHL ADD DUP6 SSTORE JUMPDEST POP POP POP POP POP POP JUMP JUMPDEST PUSH1 0x60 DUP2 MSTORE DUP4 PUSH1 0x60 DUP3 ADD MSTORE DUP4 DUP6 PUSH1 0x80 DUP4 ADD CALLDATACOPY PUSH0 PUSH1 0x80 DUP6 DUP4 ADD ADD MSTORE PUSH0 PUSH1 0x80 PUSH1 0x1F NOT PUSH1 0x1F DUP8 ADD AND DUP4 ADD ADD SWAP1 POP DUP4 PUSH1 0x20 DUP4 ADD MSTORE DUP3 PUSH1 0x40 DUP4 ADD MSTORE SWAP6 SWAP5 POP POP POP POP POP JUMP JUMPDEST PUSH4 0x4E487B71 PUSH1 0xE0 SHL PUSH0 MSTORE PUSH1 0x32 PUSH1 0x4 MSTORE PUSH1 0x24 PUSH0 REVERT INVALID LOG2 PUSH5 0x6970667358 0x22 SLT KECCAK256 PUSH17 0x3E233FC52543AD8C83BB1004C9FFB9AD38 0x2D PUSH13 0x4A7338135662F63DDA26F42664 PUSH20 0x6F6C634300081900330000000000000000000000 "
    },
    "gasEstimates": {
      "creation": {
        "codeDepositCost": "373600",
        "executionCost": "409",
        "totalCost": "374009"
      },
      "external": {
        "getPromise(address,uint256)": "infinite",
        "getPromises(address)": "infinite",
        "promiseCount(address)": "2504",
        "sealPromise(string,uint256)": "infinite"
      }
    },
    "methodIdentifiers": {
      "getPromise(address,uint256)": "95e04762",
      "getPromises(address)": "ac192a27",
      "promiseCount(address)": "0293c619",
      "sealPromise(string,uint256)": "166aa050"
    }
  },
  "storageLayout": {
    "storage": [
      {
        "astId": 15,
        "contract": "NorthstarPromises.sol:NorthstarPromises",
        "label": "_promises",
        "offset": 0,
        "slot": "0",
        "type": "t_mapping(t_address,t_array(t_struct(Promise)9_storage)dyn_storage)"
      }
    ],
    "types": {
      "t_address": {
        "encoding": "inplace",
        "label": "address",
        "numberOfBytes": "20"
      },
      "t_array(t_struct(Promise)9_storage)dyn_storage": {
        "base": "t_struct(Promise)9_storage",
        "encoding": "dynamic_array",
        "label": "struct NorthstarPromises.Promise[]",
        "numberOfBytes": "32"
      },
      "t_mapping(t_address,t_array(t_struct(Promise)9_storage)dyn_storage)": {
        "encoding": "mapping",
        "key": "t_address",
        "label": "mapping(address => struct NorthstarPromises.Promise[])",
        "numberOfBytes": "32",
        "value": "t_array(t_struct(Promise)9_storage)dyn_storage"
      },
      "t_string_storage": {
        "encoding": "bytes",
        "label": "string",
        "numberOfBytes": "32"
      },
      "t_struct(Promise)9_storage": {
        "encoding": "inplace",
        "label": "struct NorthstarPromises.Promise",
        "members": [
          {
            "astId": 4,
            "contract": "NorthstarPromises.sol:NorthstarPromises",
            "label": "uri",
            "offset": 0,
            "slot": "0",
            "type": "t_string_storage"
          },
          {
            "astId": 6,
            "contract": "NorthstarPromises.sol:NorthstarPromises",
            "label": "unlockTime",
            "offset": 0,
            "slot": "1",
            "type": "t_uint256"
          },
          {
            "astId": 8,
            "contract": "NorthstarPromises.sol:NorthstarPromises",
            "label": "sealedAt",
            "offset": 0,
            "slot": "2",
            "type": "t_uint256"
          }
        ],
        "numberOfBytes": "96"
      },
      "t_uint256": {
        "encoding": "inplace",
        "label": "uint256",
        "numberOfBytes": "32"
      }
    }
  },
  "userdoc": {
    "kind": "user",
    "methods": {
      "getPromise(address,uint256)": {
        "notice": "Read a single sealed promise by index."
      },
      "getPromises(address)": {
        "notice": "Read all promises sealed by an address (for verification UIs)."
      },
      "promiseCount(address)": {
        "notice": "How many promises an address has sealed."
      },
      "sealPromise(string,uint256)": {
        "notice": "Seal a promise to your future self."
      }
    },
    "notice": "A tamper-proof time capsule of promises to your future self.         Each promise stores an off-chain content URI (IPFS) plus an unlock         time, owned by the wallet that sealed it. No funds are held — this         contract only records, so there is no value to lose and no complex         settlement logic to go wrong.",
    "version": 1
  }
}